1111111JUAN                SEVERINO            MORETTI             000027050003
2222222ANA                 PAULA               LYNCH               000005010004
3333333MARTIN                                  DE ALZAGA           000002020005
4444444MIGUEL                                  de CERVANTES        000000000000
5555555ROMUALDO                                MADDALENA           000000000000
7777777SEBASTIAN           BENJAMIN            BACH                000000000000
